:080000000C9439000C9400007F
:100008000C9400000C9400000C9400000C94000068
:100018000C9400000C9400000C9400000C94000058
:100028000C9400000C9400000C9400000C94000048
:100038000C9400000C9400000C9400000C94000038
:100048000C9400000C9400000C9400000C94000028
:100058000C9400000C9400000C9400000C94000018
:1000680000000200030068000000F894EE27EFBBD0
:10007800F1E0F5BFE5BF8DE0A2E0BB27ED938A95DF
:10008800E9F780E098E0A0E0B1E0ED930197E9F7A7
:10009800EAE6F0E085919591009761F0A591B59118
:1000A80005901590BF01F00105900D920197E1F7B9
:1000B800FB01F0CFE0E0EEBBEFEFEDBFE8E0EEBF15
:1000C800C0E0D3E00C946800EFEFEAB9E0E8F0E0B4
:1000D800E315F40519F4E0E0EBB903C0330C441C54
:1000E8003BB8A8EEB3E002D0F1CFFFCF109639F0BD
:1000F800A89580EA9FE00197F1F71197C9F708954D
:00000001FF
