:0C0000000C9434000C9400000C940000E0
:10000C000C9400000C9400000C9400000C94000064
:10001C000C9400000C9400000C9400000C94000054
:10002C000C9400000C9400000C9400000C94000044
:10003C000C9400000C9400000C9400000C94000034
:10004C000C9400000C9400000C9400000C94000024
:10005C000C9400000C9400000C940000F894EE2713
:10006C00EFBBF1E0F5BFE5BF8DE0A2E0BB27ED9360
:10007C008A95E9F780E098E0A0E0B1E0ED93019774
:10008C00E9F7E0E0EEBBEFEFEDBFE8E0EEBFC0E07C
:10009C00D3E00C945100E0E0E093C100EFEFEAB93B
:1000AC00E1E010D0E2E00ED0E4E00CD0E8E00AD0C1
:1000BC00E0E108D0E0E206D0E0E404D0E0E802D0D1
:1000CC00EFCFFFCFEBB9A8EEB3E000C0109639F03C
:1000DC00A89580EA9FE00197F1F71197C9F7089569
:00000001FF
