:040000000C94340028
:100004000C9400000C9400000C9400000C9400006C
:100014000C9400000C9400000C9400000C9400005C
:100024000C9400000C9400000C9400000C9400004C
:100034000C9471000C9400000C9400000C940000CB
:100044000C9400000C9400000C9400000C9400002C
:100054000C9400000C9400000C9400000C9400001C
:100064000C940000F894EE27EFBBF1E0F5BFE5BF78
:100074008DE0A2E0BB27ED938A95E9F780E098E054
:10008400A0E0B1E0ED930197E9F7E0E0EEBBEFEF1C
:10009400EDBFE8E0EEBFC0E0D3E00C947F00E09158
:1000A4006F00E160E0936F00E0918000EC7FE093EB
:1000B4008000E0918100E77E2CD0E5602AD0ED7FBE
:1000C400E0938100E0918000E064E0938000E0919F
:1000D4008000EF77E093800021D078940895EA932C
:1000E400FA93EFB7EA931AD0E1E0F0E03E0E4F1E28
:1000F400E991EFBFF991E9911895D1DFEFEFEAB9F2
:10010400E0E0E093C100E5E515D0EAEA13D0FBCFC7
:10011400FFCFE0938100E09181000895E0E0E09357
:100124008500E0938400EDE3E0938900E9E0E09347
:1001340088000895EBB9A8EEB3E000C0109639F03A
:10014400A89580EA9FE00197F1F71197C9F7089500
:00000001FF
