:0A0000000C9434000C9400000C94E2
:10000A0000000C9400000C9400000C9400000C9466
:10001A0000000C9400000C9400000C9400000C9456
:10002A0000000C9400000C9400000C9451000C94F5
:10003A0000000C9400000C9400000C9400000C9436
:10004A0000000C9400000C9400000C9400000C9426
:10005A0000000C9400000C9400000C940000F8942A
:10006A00EE27EFBBF1E0F5BFE5BF8DE0A2E0BB27CD
:10007A00ED938A95E9F780E098E0A0E0B1E0ED938E
:10008A000197E9F7E0E0EEBBEFEFEDBFE8E0EEBF86
:10009A00C0E0D3E00C946900EA93FA93EFB7EA93CD
:1000AA00E0E0E0938500E0938400EDE3E0938900CB
:1000BA00E9E0E0938800E1E0F0E03E0E4F1EE991AE
:1000CA00EFBFF991E9911895EAEA04D0E5E502D083
:1000DA00FBCFFFCFE5B9A4E6B0E000C0109639F037
:1000EA00A89580EA9FE00197F1F71197C9F708955B
:00000001FF
