:040000000C94340028
:100004000C9451000C9400000C9400000C9400001B
:100014000C9400000C9400000C9400000C9400005C
:100024000C9400000C9400000C9400000C9400004C
:100034000C9400000C9400000C9400000C9400003C
:100044000C9400000C9400000C9400000C9400002C
:100054000C9400000C9400000C9400000C9400001C
:100064000C940000F894EE27EFBBF1E0F5BFE5BF78
:100074008DE0A2E0BB27ED938A95E9F780E098E054
:10008400A0E0B1E0ED930197E9F7E0E0EEBBEFEF1C
:10009400EDBFE8E0EEBFC0E0D3E00C945E00EA936D
:1000A400FA93EFB7EA93E1E0F0E03E0E4F1EE991D8
:1000B400EFBFF991E9911895EFEFE4B97894E1E095
:1000C400EDBBE2E0E0936900E1E0ECBBA32DB42DCD
:1000D400E2E0F0E025D0309729F4AAEFB0E02ED08A
:1000E400E0EF04C0AAEFB0E029D0EFE0E5B9EECF2D
:1000F400FFCFF195E195F04008950024112490E19B
:10010400AA0FBB1F001C111C0E1A1F0A18F40E0E96
:100114001F1E01C0A1609A9599F7FD01D0010895B1
:10012400E894B7FF04C0B195A195B0406894F7FD79
:10013400E0DFE3DFFD010EF4DCDF0895109639F013
:10014400A89580EA9FE00197F1F71197C9F7089500
:00000001FF
