:0A0000000C9434000C9400000C94E2
:10000A0000000C9400000C9400000C9400000C9466
:10001A0000000C9400000C9400000C9400000C9456
:10002A0000000C9400000C9400000C9471000C94D5
:10003A0000000C9400000C9400000C9400000C9436
:10004A0000000C9400000C9400000C9400000C9426
:10005A0000000C9400000C9400000C940000F8942A
:10006A00EE27EFBBF1E0F5BFE5BF8DE0A2E0BB27CD
:10007A00ED938A95E9F780E098E0A0E0B1E0ED938E
:10008A000197E9F7E0E0EEBBEFEFEDBFE8E0EEBF86
:10009A00C0E0D3E00C947F00E0916F00E160E09350
:1000AA006F00E0918000EC7FE0938000E091810096
:1000BA00E77E27D0E56025D0ED7FE0938100E091CF
:1000CA008000E064E0938000E0918000EF77E093A5
:1000DA0080001CD078940895EA93FA93EFB7EA93D4
:1000EA0015D0E1E0F0E03E0E4F1EE991EFBFF99125
:1000FA00E9911895D1DFEAEA15D0E5E513D0FBCFEF
:10010A00FFCFE0938100E09181000895E0E0E09361
:10011A008500E0938400EDE3E0938900E9E0E09351
:10012A0088000895E5B9A4E6B0E000C0109639F059
:10013A00A89580EA9FE00197F1F71197C9F708950A
:00000001FF
